:020000040800F2
:10000000A8070020D5000008552B0008A1280008EB
:1000100000000000000000000000000000000000E0
:10002000000000000000000000000000012E000899
:100030000000000000000000C12C0008032E000892
:10004000E7000008E7000008E7000008E7000008F4
:10005000E7000008E7000008E7000008E7000008E4
:1000600000000000E7000008E700000800000000B2
:10007000E7000008E7000008E700000800000000B3
:10008000E7000008E700000800000000392E000823
:1000900000000000492E0008E7000008E700000803
:1000A00000000000E7000008E700000871330008C6
:1000B0008133000800000000E70000080000000095
:1000C0000348854600F0D4FC00480047F50F0008BF
:1000D000A80700200448804704480047FEE7FEE7E1
:1000E000FEE7FEE7FEE7FEE70D2E0008C100000870
:1000F00030B50B46014600202022012409E00D46C0
:10010000D5409D4205D31D469540491B2546954047
:1001100040191546521E002DF1DC30BD03460B433D
:100120009B0703D009E008C9121F08C0042AFAD2AD
:1001300003E00B780370401C491C521EF9D2704733
:10014000D2B201E00270401C491EFBD2704700226F
:10015000F6E710B513460A4604461946FFF7F0FFC6
:10016000204610BD10B5002200E0521C835C8C5C60
:10017000A34201D1002BF8D1D8B2E1B2401A10BD90
:1001800070B5064603F038F9046805460A220021D6
:10019000304600F081FA2C6070BDF8B502464A4046
:1001A000D40F42004B0052085B089A4202D202462A
:1001B000084611464A0023D0C30D4A00DDB2120E94
:1001C000AD1A202D35DA49020126490AF6058A19A9
:1001D000002C00D0524220214F1B1146B9402A4129
:1001E0001018C20D9A4221D0002C17D0012D08DC26
:1001F000DA05801AD20F8019D207DBB200F08CFA30
:10020000F8BDDA05801A012340001B06C0188018CB
:100210005A428018CA0F1043490007E04908C20734
:100220001143DA05801A80194008801800F06CFA32
:10023000F8BD61000122511A001BF7E70122D20725
:100240005140AAE70122D2075040A6E770B5024606
:100250004A40D50F40004A00ED07400852080028E8
:1002600014D0002A12D0C40DD30D41020120C005C4
:100270005202490A520AE41A091812187D349142AE
:1002800001D3641C00E04900002C01DA002070BD9D
:100290000023914201D3891A0343400849000028F2
:1002A000F7D100290AD0914202D10121C90705E006
:1002B000914201D2012101E00121C943E005C018AA
:1002C000401900F021FA70BDF0B5074608465840C5
:1002D00087B0C00F049048000E46590040084908F6
:1002E000BC1A884105D2384631461E4617460B4691
:1002F00002465800400810434CD0300D0390400592
:100300005900400D490D0590401A0290402872DABC
:1003100018030121000B090508430190049800927D
:10032000002805D001995242002088410092019096
:10033000029840210A1A0199009800F027F9054611
:100340000C466B4607CB00F042F9C0197141039A85
:100350000E0D0023D71756401A467A40164344D054
:10036000049A002A2DD0029A012A039A15DC12055C
:10037000C01A914101263605001C7141D20F059E1D
:10038000D2070093019202962A46234600F00AFA09
:1003900007B0F0BD38463146FAE71605224A0F4647
:1003A000B218C01AB74101210905001C4F410018BD
:1003B0007F41114618187941E20F10436D196441CD
:1003C00013E0E2076D0815436408C2071443039A5B
:1003D00001261205C01A91413605001C7141CE0755
:1003E000400830434908C01851412A46234600F0CE
:1003F000CCF9CDE7FFE7049801224000C117121A9B
:1004000000238B4104983146C417381AA141EEE706
:1004100030B40124E407634030BC55E730B4012414
:10042000E407614030BC4FE70000E0FF70B54B00CF
:100430005B0803430BD04B005C0D0026334665423E
:10044000B341D417AD1AA34102DB0020014670BDB1
:1004500012053018514170BD10B500229623114687
:1004600000F05AF910BD00004A0009030123090BEE
:100470001B051943094B10B5520D9A4201DA0020B1
:1004800010BD064B34339A4203DC9A1A00F08EF802
:1004900010BD03495118884010BD0000FF03000043
:1004A000CDFBFFFFC20FD207400040080BD0C10DAB
:1004B0000723DB01C91840020905400A1143C2089D
:1004C000400711437047002001467047CB0FDB0700
:1004D000490010B5490802460A4307D00A0D07240F
:1004E0000903E401090B121B002A01DC002010BDE6
:1004F000C900440F0C43C100E018D205801800F079
:1005000003F910BD0122D207002800DB101A0029D0
:1005100000DB511A814270470122D207002800DB1C
:10052000101A002900DB511A88427047F0B51FB439
:100530000646002082B005464024019100901BE051
:10054000019922460F46304600F030F8049A059B88
:10055000801A994110D310461946224600F016F829
:10056000361A8F410197224601200021009F00F09A
:100570000DF838184D4100902046641E0028DFDC3D
:10058000019B00982946324607B0F0BD10B5202ADD
:1005900004DB0146203A9140002010BD9140202309
:1005A0009C1A0346E3401943904010BD10B5202A21
:1005B00004DB0846203AD040002110BD0B46D34052
:1005C000D0402024A21A91400843194610BD10B50E
:1005D000202A06DBCB170846203A1041C1170B43EF
:1005E00006E00B461341D0402024A21A9140084354
:1005F000194610BD0FB400B589B00CA900910B9934
:100600000023CB60204B214A0693079204220192DB
:100610001F4A02921F4A089202466B46002000F0D1
:10062000C2FA09B008BC04B0184770B586B00646D7
:100630000020C0430190002015460C460091029115
:1006400004903246694604A8FFF7D4FF0346049895
:100650002118002D05D0002801D00A4600E02246CE
:100660002A6000280DD0002B02DD0098884208D0B7
:10067000081B0190009432466946029404A8FFF7D3
:10068000B9FF06B070BD0000FD0D00081D0E00088A
:10069000FFFFFF7F9D0A0008F7B5009C0F4600266C
:1006A0002578641C002D05D000F0F4F90068405D49
:1006B000C007F5D12B2D02D02D2D18D0641E394640
:1006C0002046029A00F0BCFB002F04D03968A142FA
:1006D00001D1009939607105022400290BDA4042EA
:1006E000002803DD02F088FE0460A007FEBD0120A3
:1006F00080020643E3E70028F8DA02F07DFE04609A
:100700000048FEBDFFFFFF7F002904DA401C4900BE
:1007100001D140084000704770B40024050C05D199
:100720001024000402D1002921D01124050E01D18A
:1007300000020834050F01D10001241D850F01D1ED
:100740008000A41C002801DB4000641C002908D0A4
:1007500020252E1B0D46F540A14000D00121294344
:10076000084301061B1B000ADB1D02D5002070BCDC
:100770007047DB05181880180029F8DA401C49007A
:10078000F5D170BC40084000704710B5002B08DA66
:100790000024401C614192185B411A4301D140087A
:1007A000400010BDF0B51FB482B005460C0003D068
:1007B000084602F0FDFD02E002F0FAFD203002469C
:1007C000009021462846FFF7E1FE049B059A044667
:1007D0000F4618431143084314D0184610431BD04A
:1007E000009840210A1A18460599FFF7DFFE0546D2
:1007F0000E46009A05990498FFF7C8FE084305D0F5
:10080000012004E02046394607B0F0BD0020C117A2
:1008100005430E432C43374300990E986305401A55
:100820007905E40A00220C43FD0A0A3002D50020B3
:100830000146E9E70105101969410C9C0D9D00195D
:100840006941FFF7A2FFDFE7F0B51FB488B00B994D
:100850000998002448400999C00F490049080991A6
:10086000C0070B990090490049080B910999089815
:10087000A64608431CD00B990A98084318D009983B
:1008800001244000420D4800410D09982405000351
:10089000000B204309900B980003000B20430B90A2
:1008A00050181C494018002201901446104605E0DB
:1008B000002001460DB0F0BD032801DA034600E038
:1008C00003239C46C11A0AAE0AE05F0008ADED5B47
:1008D0004F00F75B7D430027AA187C41491C5B1E33
:1008E0006145F2DD410004AB5A522104120C0A4367
:1008F000240C401C0828DFDB019802900099704608
:1009000001910090059B049A07990698FFF74AFF0A
:10091000D0E700000DFCFFFFF0B50C465C4085B051
:10092000E40FE40703944C00002664085900944641
:10093000490802460296224321D062460A431ED04D
:100940006200570D4A000E032303550D0124024691
:100950002C492405781B1B0B360B401823432643D8
:10096000614600901C46501AB44103D30098401CC5
:10097000009002E0921800985B41002803DA002002
:10098000014605B0F0BD0020012109050746864655
:1009900011E064461D46141BB54106D36546521B43
:1009A000B341744607430C43A646CD0740084908A7
:1009B000284392185B4105460D43EAD1104618437F
:1009C00013D06046194650407140084306D0604637
:1009D000101AB34106D20122002306E000220123AF
:1009E000DB0702E00122D243531000987446010550
:1009F000381C6141029C039D00196941FFF7C5FE47
:100A0000BFE70000FD0300004A0009030123090BB2
:100A10001B0519430A4B10B5520D9A4202DA002009
:100A2000014610BD064B34339A4203DC9A1AFFF795
:100A3000BDFD10BD034BD218FFF7A8FD10BD00008F
:100A4000FF030000CDFBFFFF10B5002904DB0124EC
:100A5000E40740428C412146002B04DB1C46012365
:100A6000DB075242A341994200D1904210BD0000E1
:100A7000064C0125064E05E0E36807CC2B430C3CF1
:100A800098471034B442F7D3FFF71EFB2C420008FE
:100A90004C420008004870472842000810B5044640
:100AA000FFF7F8FF0068005DC007C00F10BD000031
:100AB000FFB5087885B01546FF2805D0491C2D28BC
:100AC00004D00022002407E000240BE00122F9E713
:100AD0000A235C430419491C0878FF28F8D1002A2E
:100AE00000D06442002001902A7801462D2A01D0CE
:100AF0002B2A04D16D1C2D2A0DD000220192002634
:100B00002F78FF2F09D00A2200236D1C00F0EBF98B
:100B100038187141F4E70122F0E7089AA21803920D
:100B200002460A430DD00024B24AB14D2646009237
:100B300000F026FA049003980291002807DA474251
:100B40001AE0002105980A4606C009B0F0BD074624
:100B500012E0F80707D022462B4630460099FFF7EF
:100B600073FE0646009122462B4610461946FFF7B3
:100B70006BFE04460D467F10002FEAD10398009BC0
:100B8000002802990498324602DAFFF7C5FE01E018
:100B9000FFF75AFE019A002A02D00122D2075140E3
:100BA000059A03C2D1E7FFB591B000200990002556
:100BB000ED432E209E685C681F460190B9696D1C4C
:100BC000129888470090396A88470028F6D1009823
:100BD000401C0AD00D20C0018443002E12DD009875
:100BE0002B2809D02D280DD103E00020C04315B0DB
:100BF000F0BD012080020443B9696D1C129888473A
:100C0000761E009003A9600501D52D2000E02B2061
:100C10006A461073491C0CA80F9102900AE0B9694A
:100C20006D1C1298884700900120400204431398DD
:100C3000761E0560002E02DD00983028EFD0019965
:100C40000098884246D18020044308E00998401E5D
:100C500009900120400204431399681C0860B96997
:100C60006D1C761E1298884700903028EED031E037
:100C70000199884205D1200603D480200443761EC2
:100C80001EE0009802F084FC002826D001204002DB
:100C9000044307A90F980331761E88420BD20098AF
:100CA0000F99303808700F98401C0F90200607D518
:100CB0000998401E03E0200602D40998401C0990C0
:100CC000A00502D51399681C0860B9696D1C1298BB
:100CD00088470090002ECBDC59E0002E57DD0098AD
:100CE000652801D0452852D1A00550D50320000227
:100CF0008443B9696D1C761E129888470090002EB7
:100D00000CDD2B2804D02D2808D1FF20013004430E
:100D1000B9696D1C12988847761E0090E00501D5D0
:100D20002D2100E02B21029801700298401C0290B6
:100D3000019025E00120400204430EA902980131F0
:100D4000761E88420ED20098029930380006000EB6
:100D5000087003D10299019881420AD90298401C77
:100D6000029006E0E00501D5234801E02248404218
:100D70000990B9696D1C1298884700901398056016
:100D8000002E04DD009802F003FC0028D2D1F9699E
:100D9000129888470F99FF200870029903AA0870DB
:100DA00000200A900B900CA90AA8099BFFF780FE6F
:100DB000A00502D40120C04319E72420044209D031
:100DC000E00713D138680B9A0A99031D3B6000684D
:100DD00006C00BE00B990A98FFF778FB0146E00785
:100DE00004D13868021D3A60006801602846FEE6BA
:100DF000000024400000F03FF1D8FFFF4268002AC5
:100E000008D001680B78491C002B03D0521E06C085
:100E1000184670470121C160881E70474268002A49
:100E20000BD0C3680168002B07D183688B4204D0C4
:100E3000491E521C06C0002070470020C043704766
:100E4000F7B582B0029C00272078641C15460197F4
:100E5000302802D0002D15D015E020780127641C21
:100E6000782804D0582802D0002D09D00BE0002D9E
:100E700001D0102D07D1002710252078641C02E036
:100E8000082500E00A250026009610E000990127B9
:100E900069430818020C294680B2714300908E18ED
:100EA0003804864201D3012001902078641C294631
:100EB00000F056F80028E9DA0398002805D0002F42
:100EC00001D0641E00E0029C04600198002806D056
:100ED00002F092FA02210160C81E05B0F0BD00992F
:100EE00030040843F9E7F0B51FB486B00020009045
:100EF000019002900698069980B204900798090C18
:100F000002040014114307900027089D09980691D8
:100F10003E463C4603900398A9B20204000C03909D
:100F200004982D0C1543484300212246FFF72EFB61
:100F3000C719714110340E46402CECDB3846029A3A
:100F4000FFF724FB009A019B8018009059410298FA
:100F50000191103002904028CCDB00980BB0F0BD1E
:100F60003A2800D23038202302469A43412A01D33E
:100F700010463738884201D30020C0437047000034
:100F80000EB5054A02920022009213460192FFF725
:100F900009FC03B000BD00003304000070B58C18DC
:100FA0000578401C6B075B0F01D10378401C2A11A8
:100FB00006D10278401C03E006780E70401C491CE4
:100FC0005B1EF9D12B0705D40023521E0DD40B70E4
:100FD000491CFAE70378401CCB1A921C03E01D78E9
:100FE0000D70491C5B1C521EF9D5A142D8D30020BC
:100FF00070BD000010B50122D2060020074B810011
:1010000054585C50401CC0B23028F8D30120044929
:101010004007886002F0C6FF002010BD00000020DD
:1010200000ED00E010B50020084A81180968491C4D
:1010300004D007A002F0ACF900F0D4FA001D40285B
:10104000F3D308A002F0A4F910BD00000078000856
:10105000466C617368426C616E6B206572726F7270
:101060000A000000466C617368426C616E6B204F31
:101070004B0A000000B587B00020069003200190C5
:10108000094804900120059006A901A800F0B6FBCC
:10109000002804D005A002F07BF900F0A3FA08A014
:1010A00002F076F907B000BD00780008466C617365
:1010B000684572617365206572726F720A00000084
:1010C000466C6173684572617365204F4B0A00007E
:1010D00070B50A4C094E4036094D08E02A462146B3
:1010E000012000F06DFC002801D180348035B4422D
:1010F000F4D304A002F04CF970BD000000780008A1
:1011000080020020466C61736850726F6772616D77
:10111000204F4B0A0000000010B500200A4A0B497E
:1011200083089B004418D3582468A34204D008A025
:1011300002F02EF900F056FA001D4028F0D309A065
:1011400002F026F910BD000080020020007800089F
:10115000466C617368566572696679206572726F54
:10116000720A0000466C6173685665726966792080
:101170004F4B0A0010B590B02C2105A8FEF7E7FFF1
:10118000002401940294039404940F200590FF20FE
:1011900001300A900B9410480121008AC903C00451
:1011A000C00C40180C9006940C2007900D940894E5
:1011B0004800099002200E900F9405A800F0C6FE8A
:1011C00007200190029403940494012101A800F0E7
:1011D00095FD10B010BD0000000FFF1F10B501F00D
:1011E00085FD002001F0B4FD02F098FE10BD000066
:1011F00001F058FB002001F0A1FC0022042102486C
:1012000000F009FDFEE700000004005010B501F0F9
:101210006DFD10BD00B587B00A48426B02210A433C
:101220004263406B0840019000200390012004902D
:1012300005910820029002A9034800F05BFC07B06A
:1012400000BD0000001002400004005010B508214D
:10125000044800F0D9FC012801D0002010BD012075
:1012600010BD00000004005010B5FFF7D3FF0023AD
:101270001A460B490B4802F017FE0B4A0321094896
:1012800002F064FD094A0421064802F05FFD084AA5
:101290000521044802F05AFD024802F017FE10BD75
:1012A0004D120008C00200200D120008DD110008D8
:1012B000F111000810B50548046803E0204602F06B
:1012C00049FDE46A002CF9D110BD0000780100202E
:1012D000F0B51A4A1EE00478401C00250023E607FA
:1012E00005D00726F71A0126BE402E43F5B2640842
:1012F0005B1C082BF3DB2B025A400023104C150417
:1013000003D55200624092B201E05204120C5B1C01
:10131000082BF4DB491E4B1CDDD1002000210125E8
:101320000F24D30704D0661A2B46B340034398B268
:101330005208491C1029F4DBF0BD0000FFFF00003B
:1013400005800000F8B5454C6078012808D1A078E8
:101350000026002805D0A67041A002F019F866709A
:10136000F8BD464946A002F013F8E6700020434F4E
:10137000395C002905D03A2934D0401CC0B232284B
:10138000F6D341A13D48FEF7EDFE00282ED040A146
:101390003A48FEF7E7FE314D083500282AD03EA135
:1013A0003648FEF7DFFE00282DD03DA13348FEF77A
:1013B000D9FE002838D03CA13048FEF7D3FE0028E3
:1013C00043D03CA12D48FEF7CDFE002840D03CA1E3
:1013D0002A48FEF7C7FE00283DD03BA001F0D8FF09
:1013E0006670F8BD3E54401CE070CAE73FA001F0B3
:1013F000CFFFF5E7E0783818FEF7C2FE2860C0B2EC
:1014000001F09CFBECE7E078381802F065FCFFF790
:101410005DF828604100090E02D001F099FCDFE779
:10142000002001F095FCDBE7E078381802F054FC6E
:10143000FFF74CF828604100090E02D001F0B6FC1D
:10144000CEE7002001F0B2FCCAE702F067FDC7E773
:1014500002F072FDC4E700F043FCC1E7C8000020C1
:101460005B4572726F725D3A2042554646204F5678
:10147000455220464C4F570D0A00000094010020B1
:101480003E3E2025730D0A005445535400000000D1
:101490005345545F4C4544005345545F424F4D0003
:1014A0005345545F544F5000464C4153485F53419D
:1014B00056450000464C4153485F53484F57000083
:1014C00052455345540000005B4572726F725D3A9D
:1014D0002068657265206973206E6F207468697377
:1014E000206F7074696F6E0D0A00000054455354EC
:1014F00020534543435553530D0A000070B500680F
:101500001149884219D1114A002410780125132865
:1015100001D3147095700E4B1078195C0A290DD008
:101520002A290BD0202901D0401C107010780122EC
:1015300019180748143001F003F970BD0028F5D0E0
:1015400055701C541470F1E700440040C80000209E
:101550009401002030B587B0142102A8FEF7F7FDF2
:101560001D48C26B012149040A43C263C26B0A4091
:101570000192416B012211434163406B1040019085
:1015800002200390002404940590042006900C256A
:101590000295052002A9000700F0ACFA10480F4997
:1015A0000160E121490241608460C460046184619A
:1015B000456101F08DF8002211461C2000F08CFBE3
:1015C0001C2000F07FFB064901221439044801F079
:1015D000B7F807B030BD00000010024000440040E2
:1015E000A8010020FEE700000549002048600548EA
:1015F00041690422114341610348C10608607047F4
:10160000900300200020024021433412054A0021AB
:10161000516005494A6902231A434A61FF2101606A
:1016200070470000900300200020024070B50022A7
:101630000C4C636901252B436361EFF3108372B691
:101640000125ED0408E040C940C0521CD2B21F2A57
:1016500002D166692E436661202AF4D383F3108891
:1016600070BD00000020024003494A69CB141A43B0
:101670004A61FF21016070470020024070B50446B6
:1016800000F0D0FA0419084D05E000F0CBFAA042B2
:1016900001D3032070BD2869C043C003F5D50348BA
:1016A0002861002070BD0000002002401180000071
:1016B00070B50D460E4902F0D1FC0D490D310C46B6
:1016C000103CE07802F01EFB20692860002525719F
:1016D0006079052807D1206961690646FEF7AEFDED
:1016E000A061666165716079401C607170BD000029
:1016F000FF00002070B506467F251B4CED052946EE
:101700006068FEF74AFD3146FEF706FF01D2102061
:1017100021E029462068FEF791FD3146FEF7F2FEF2
:1017200001D2002017E030466168FEF787FDFF21F7
:10173000C905C84200D30020FEF7B4FE0B4A0C4B8B
:10174000FEF7C2FD0122D243FEF770FEFEF78CFECB
:101750001021081AC0B201461139032900D2102005
:10176000642800D9002070BD80020020CDCCCCCCF4
:10177000CCCCF43F70B500240246203251780229C7
:1017800003D004218163012422E001680B680E2547
:10179000AB430B6001680B685B085B000B600D4B93
:1017A0000168994201D1012107E00A4B14339942A3
:1017B00001D1102101E0FF210131064B083B5960A6
:1017C0000121517000211170416B002900D0884720
:1017D000204670BD0800024070B5044600F022FAB1
:1017E0000546601C02D004484068241800F01AFA2C
:1017F000401BA042FAD370BD80010020F8B504461A
:101800000E46012562480178012964D0012101704A
:10181000604840680004400F5F490B6882005F48E1
:1018200082581068C7B2BC46BB4229D14B68C70179
:10183000FF0DBB4224D10B690004000E83421FD16F
:101840008B685068C7B2BB421AD1CB684001400DCB
:10185000834215D148699368DB03DB0B98420FD1B3
:101860008869D368DB03DB0B984209D1CB69106927
:1018700087B2BB4204D10B6A8000800C83421ED029
:10188000604608601068C001C00D48601088000400
:10189000000E08611079886050684001400DC860F2
:1018A0009068C003C00B4861D068C003C00B88615A
:1018B000108A80B2C86110698000800C08627D20A7
:1018C0002168C000012908D00027FF43022915D054
:1018D000032935D057E00220F8BD0446FFF7CEFEBD
:1018E000010050D1FFF780FE2046FFF7C7FE0546F6
:1018F0002B49486904229043486144E07D20C000A0
:10190000FFF7BCFE00283ED13760676811E038461B
:10191000FFF77CFE7D20C000FFF7B0FE05462048A3
:101920004169022291434161280001D037602AE0D9
:101930008037A0686168C0014018B842E7D822E04B
:101940007D20C000FFF79AFE00281CD13760E768B1
:1019500013E03846FFF788FE7D20C000FFF78EFEBB
:1019600005460F484169C21491434161280001D0E6
:10197000376008E0012000033F182069E168000398
:101980004018B842E5D80248002101702846F8BD49
:101990009003002000100240002102408441000812
:1019A00000200240012005494A69C3071A434A61E1
:1019B0004969002900DA0020704700000020024039
:1019C000F7B50F463C4C207801285AD001202070F2
:1019D0003A4840680004400F39490D688200394890
:1019E00080580268D3B29D4229D14D68D601F60DC8
:1019F000B54224D10D691204120E95421FD18D6893
:101A00004268D6B2B5421AD1CD685201520D954204
:101A100015D14A698568ED03ED0BAA420FD18A6999
:101A2000C568ED03ED0BAA4209D1CD69026996B2F2
:101A3000B54204D10D6A9200920C95421DD00B6004
:101A40000268D201D20D4A6002881204120E0A61A5
:101A500002798A6042685201520DCA608268D203DC
:101A6000D20B4A61C268D203D20B8A61028A92B257
:101A7000CA6100698000800C0862780603D00120EA
:101A8000FEBD0220FEBD7D25ED002846FFF7F6FDD8
:101A900000280DD138460299FFF7C8FD2846FFF708
:101AA000EDFD09494A69520852004A610028E9D10E
:101AB00000212170FEBD00009003002000100240B4
:101AC0000021024084410008002002400020064915
:101AD0004A69002A07DA054A8A60054A8A60496924
:101AE000002900DA012070470020024023016745E9
:101AF000AB89EFCDF0B500227CE001249440A446F0
:101B00002340002B75D04C68022C01D0122C0CD134
:101B1000D408A40027183D6A5407E40E0F26A640F7
:101B2000B5430E69A6402E433E6206685500032465
:101B3000AC40A6430F79BF07BF0FAF4037430760E4
:101B40004E68012E05D0022E03D0112E01D0122E88
:101B50000ED18668A643CF68AF4037438760476899
:101B60006646B7430E79F606F60F96403E4346604A
:101B7000C668A6438C68AC403443C4604C68E4003B
:101B800037D595081E4CAD002F193D6E9407E40E15
:101B90000F26A640B54305263607B04201D10026E0
:101BA00005E0184EB04201D1012600E00226A64011
:101BB0002E43134D3E66124E803634689C434F6868
:101BC000FF0300D51C43346074689C434F68BF0317
:101BD00000D51C4374602C689C434E68F60200D507
:101BE0001C432C606C689C434E68B60200D51C43B5
:101BF0006C60521C0B681C46D44000D07DE7F0BDE1
:101C000000180240000400500069084201D0012081
:101C1000704700207047002A01D0816170478162BF
:101C20007047000001488068704700008001002074
:101C300002488168426889188160704780010020ED
:101C400010B50024032000F009F8002801D0012479
:101C500001E000F02BF8204610BD000070B50546ED
:101C60000024104E7168002919D07D20C000FEF7B5
:101C70003FFA01460C480068FEF73AFA00F08CFB88
:101C8000002801D001240BE0042D06D200222946B1
:101C9000501E00F021F8356002E0012400E001242C
:101CA000204670BD80010020C00000207047000069
:101CB000C106C90E01208840014908607047000034
:101CC00080E100E0C106C90E01208840014908609A
:101CD0007047000000E100E010B500F03DFF10BDCE
:101CE000BFF34F8F04490348C860BFF34F8F00BF55
:101CF000FDE700000400FA0500ED00E0F8B5044639
:101D00000D46002C0FD054480068C007C00FA842F1
:101D100018D2514F38684008400028433860FFF718
:101D200081FF064609E00120F8BDFFF77BFF811B1C
:101D30004A48814201D90320F8BD3868C007C00F66
:101D4000A842F2D12068464E81070DD5400704D540
:101D5000B068072109030843B060B0680F21090289
:101D60008843A1680843B0602078C0073BD0606812
:101D700001280CD000280FD0022812D03849403159
:101D8000042813D0096A890715D40120F8BD3168E9
:101D9000890310D40120F8BD316849050BD4012016
:101DA000F8BD3168890106D40120F8BDC9698907E9
:101DB00001D40120F8BDB168C908C9000143B16070
:101DC000FFF730FF074607E0FFF72CFFC11B234852
:101DD000814201D90320F8BDB0683821084061680C
:101DE000C9008842F0D11C480168C907C90FA9423F
:101DF00016D901684908490029430160FFF712FF1D
:101E0000074607E0FFF70EFFC11B1448814201D9C6
:101E10000320F8BD10480068C007C00FA842F1D1E8
:101E20002078400706D5B168072000038143E068A9
:101E30000143B16000F034F8B1683C2289091140D7
:101E4000084A515CC906C90EC840074908600748DE
:101E50000068FFF703FFF8BD002002408813000070
:101E600000100240F0400008C00000208001002067
:101E70000148006870470000C000002000B5FFF76F
:101E8000F7FF054989681C22890A1140034A515C01
:101E9000C906C90EC84000BD0010024050410008EC
:101EA00000B585B0142225496846FEF737F9244A63
:101EB00090686B468006400F18D090688006400FEF
:101EC000012823D090688006400F022820D0906817
:101ED0008006410F0120C003042905D091688906BE
:101EE000490F032900D0002005B000BD1068012172
:101EF0008004400F814050680004400F042800D93E
:101F0000002080001858FEF7F3F8EDE70D48EBE7E6
:101F1000D068C007C00F002806D0012802D004985E
:101F20004000E1E70848DFE750680004400F04285C
:101F300000D90020800018584000D5E77041000803
:101F40000010024000366E01006CDC02FEB5044653
:101F5000002C0DD020783827C007F74E00285ED01F
:101F6000B0683840F168C907C90F102802D003E0F3
:101F70000120FEBD012915D0082813D06068002873
:101F800007D0A068002815D031690C229143014385
:101F9000316101216068090488420DD1306808432D
:101FA00030601CE03068800339D56068002836D185
:101FB0000120FEBD0120FEBD052301221B04920469
:101FC000984206D130681043306030680843306072
:101FD00005E0306888433060306890433060606866
:101FE00000280ED0FFF71EFE054606E0FFF71AFE9A
:101FF000401BC82801D90320FEBD30688003F5D5F9
:102000000DE0FFF70FFE054606E0FFF70BFE401B55
:10201000C82801D90320FEBD30688003F5D420789C
:1020200080077BD5B5683D40F068C007C00F102D14
:1020300001D1002814D0002D12D0606900285AD098
:1020400030680721C9028843A169084330603068BD
:10205000FF21013108433060FFF7E4FD054640E011
:102060003068400502D56069002809D07068E169D0
:10207000000C000408437060FFF7D4FD074608E039
:102080000120FEBDFFF7CEFDC01B022801D90320B1
:10209000FEBD30684005F5D5002D13D1306807210D
:1020A000C9028843A16908433060FFF7F9FEB168AF
:1020B0003C2289091140A14A515CC906C90EC84099
:1020C0009F4908609F480068FFF7C8FD002825D099
:1020D0000120FEBDFFF7A6FD401B022801D9032009
:1020E000FEBD30684005F5D57068E169000C00045C
:1020F0000843706012E03168FF2001308143316095
:10210000FFF790FD054606E0FFF78CFD401B022817
:1021100001D90320FEBD30684005F5D420788A4DF2
:10212000000734D5B0688006400F03280AD0206A23
:1021300000281AD0296A012001432962FFF772FDA5
:1021400007460EE0286A800721D5206A00281ED1A4
:102150000120FEBDFFF766FDC01B022801D9032048
:10216000FEBD286A8007F5D511E0286A40084000C6
:102170002862FFF757FD074606E0FFF753FDC01B37
:10218000022801D90320FEBD286A8007F5D42078F3
:1021900040076FD500200190B0688006400F0428EA
:1021A00019D0F06BC00009D4F16B01200007014386
:1021B000F163F16B014000910120019063480168D7
:1021C000C9051BD401460A68801502430A60FFF75F
:1021D00029FD07460EE0E869800766D5E06800281B
:1021E00063D10120FEBDFFF71DFDC01B022801D9F0
:1021F0000320FEBD55480068C005F4D5E0680028FE
:1022000008D0206981038A0F514917D032698A4367
:1022100002433261E068012817D00421052819D053
:10222000E86940084000E861E8698843E861E068DF
:10223000002824D0FFF7F6FC07461CE030698843ED
:102240000121490440183061E4E7E86901210843AD
:10225000E861ECE7E8690843E861E86901210843BF
:10226000E861E4E7FFF7DEFCC11B3A48814202D98E
:102270000320FEBD19E0E8698007F3D50EE0FFF703
:10228000D1FC074607E0FFF7CDFCC11B3148814276
:1022900001D90320EDE7E8698007F4D4019801280B
:1022A00003D1F16B00078143F163606A002870D0AD
:1022B000B1688906490F02295FD001273F0602282D
:1022C0000AD03068B8433060F06840084000F060E1
:1022D000FFF7A8FC04464CE03068B8433060FFF7D5
:1022E000A1FC054606E0FFF79DFC401B022801D932
:1022F0000320BEE730688001F5D4A06A002806D12B
:1023000000F01AFD1449884201D20120B1E7F068BB
:10231000A16A400840000843F060306838433060EC
:10232000FFF780FC044619E0FFF77CFC001B022845
:1023300014D903209DE7000000100240F04000087F
:10234000C0000020800100204010024000700040CA
:1023500000000300881300000024F40030688001AE
:10236000E2D516E0FFF75EFC001B022801D903202E
:102370007FE730688001F5D40BE0012807D0F068D2
:10238000A16AC007C00F884203D0012071E7012075
:102390006FE700206DE7000010B50949401E884234
:1023A00001D9012010BD074C60610321081F00F016
:1023B000D3FB0020A06107202061002010BD000099
:1023C000FFFFFF0000E000E07047704770B5044673
:1023D000002C05D025462035687F002802D006E075
:1023E000012070BD00202877204600F00AF8022066
:1023F0006877211D206800F02FFD012068770020FC
:1024000070BD70470168CB6801221343CB60006840
:1024100081684907490F062902D00168114301600C
:1024200000207047704770B5044620680169002598
:10243000C9438907002916DBC168C943890712D43B
:10244000E91E01610120207720688069800703D0A0
:102450002046FFF7E7FF05E0204600F099F8204608
:1024600000F097F8257720680169C943490718D417
:10247000C168C943490714D40421C943016102203A
:102480002077206880698005800F03D02046FFF701
:10249000C9FF05E0204600F07BF8204600F079F8FF
:1024A000257720680169C943090717D4C168C94362
:1024B000090713D40821C94301610420207720684B
:1024C000C069800703D02046FFF7ACFF05E0204637
:1024D00000F05EF8204600F05CF82577206801697E
:1024E000C943C90618D4C168C943C90614D4102108
:1024F000C9430161082020772068C0698005800FEA
:1025000003D02046FFF78EFF05E0204600F040F89C
:10251000204600F03EF8257720680169C943C907C5
:1025200008D1C168C943C90704D1891E0161204689
:1025300000F030F820680169C943090609D4C16870
:10254000C943090605D48021C94301612046FFF72C
:102550003BFF20680169C943490609D4C168C943E2
:10256000490605D44021C9430161204600F026F800
:1025700020680169C943890609D4C168C94389062D
:1025800005D42021C94301612046FFF71EFF70BD1D
:102590007047704710B5044606492068884201D14B
:1025A00000F054FB04492068884201D100F066FA2B
:1025B00010BD0000004401400020004070477047FB
:1025C00070B5044622681068D168526903071B0F72
:1025D000002B07D1850605D58D0603D5204600F0D2
:1025E000BFFD70BD002B60D0D307DB0FFF25213569
:1025F0000D402B4359D0C30705D0CB0503D5A36CA1
:1026000001252B43A364430705D5D30703D0A36C4F
:1026100002252B43A364830705D5D30703D0A36CFE
:1026200004252B43A36403070825002B04DAD207F3
:1026300002D0A26C2A43A264A26C002AD1D08006E8
:1026400004D5880602D5204600F08AFD206840693E
:102650004006C00FA16C2940014320D0204600F065
:1026600063FD20684169490615D5416940229143BF
:102670004161206C00280AD014494163206CFFF7A7
:1026800079F80028ADD0206C416B884770BD20469A
:10269000FFF795FF70BD2046FFF791FF70BD204604
:1026A000FFF78DFF0020A06470BD020605D50A0665
:1026B00003D5204600F0F8FD70BD4006FCD5480665
:1026C000FAD5204600F03FFD70BD0000193100082A
:1026D000F8B50446002C06D025464035687900261A
:1026E000002802D005E00120F8BD2E71204600F040
:1026F00026F8242068712068C16801277F03B94348
:10270000C160204600F06AFD206A002802D0204601
:1027100000F0EAFC206801690122D20291430161C4
:10272000206841690822914341612068C1683943AA
:10273000C160A66420206871A8710020F8BD7047B0
:1027400010B5034640339C79202C01D0022010BDE7
:1027500000291DD0002A1BD01C79012C1AD001247D
:102760004163028742870021816422229A71197194
:102770000168CA6823021A43CA6001684A69224391
:102780004A610068C16820221143C160002010BD69
:10279000012010BD022010BD10B504460749206875
:1027A000884202D12046FEF7A9FE054920688842EA
:1027B00002D1204600F06AFC10BD00000044004039
:1027C00000380140FFB583B004460E461546274643
:1027D00040377879202802D0022007B0F0BD002EC3
:1027E0000AD0002D08D00120A1680003814209D140
:1027F0002069002802D005E00120EEE7F00701D0B3
:102800000120EAE73879012815D00120387100202D
:10281000A06421207871FFF705FA0290258665866D
:102820000120A1680003814202D12069002804D060
:102830003546002618E00220CFE7002514E0069870
:102840000090002280212046029B00F05FFD0028BE
:1028500001D00320C1E7002D15D0287821686D1C18
:102860004860608E401E6086608E0028E7D1069822
:102870000090002240212046029B00F047FD0028E6
:1028800008D00320A9E73088B61CC0052168C00D18
:102890004860E6E720207871002038719DE7704796
:1028A000FEE70000F8B51320FFF702FA3B4C0122C7
:1028B0002546123521882868FFF7ADF96188002286
:1028C0006868FFF7A8F9A1880022A868FFF7A3F9B4
:1028D000E1880022E868FFF79EF926462746083679
:1028E0002237318800223868FFF795F97188012274
:1028F0007868FFF790F9B1880122B868FFF78BF983
:10290000F1880122F868FFF786F9C820FEF764FF16
:10291000218800222868FFF77EF931880122386873
:10292000FFF779F9C820FEF757FF218801222868B0
:10293000FFF771F9618800226868FFF76CF9A188D8
:102940000022A868FFF767F9E1880022E868FFF72E
:1029500062F9318800223868FFF75DF97188012239
:102960007868FFF758F9B1880122B868FFF753F982
:10297000F1880122F868FFF74EF9C820FEF72CFF16
:10298000218800222868FFF746F93188012238683B
:10299000FFF741F91320FFF795F9F8BD4201002038
:1029A000F0B587B03148416B012319434163416B56
:1029B00019400191426B20210A434263406B084059
:1029C0000190039300200490022005900024284FDA
:1029D0006500785B02902648A6001230805902A953
:1029E000FFF788F822480830405B0290204802A98F
:1029F00022308059FFF77EF81D48795B12308059EC
:102A00000022FFF708F91A4801220830415B1A300A
:102A10008059FFF700F9641CE4B2042CD8D31348A2
:102A2000403001680122D203114301600068104068
:102A3000019011480F490160FF21F431C160172155
:102A4000416000210161816041618161FFF7BEFC4D
:102A50000948FFF7D7FC012211461320FFF73CF984
:102A60001320FFF72FF907B0F0BD0000001002405F
:102A7000420100200020004040020020F8B52E4C0A
:102A8000207826462746A51D18360E37002845D043
:102A9000401EC117890F091889088900401A410092
:102AA0008000695A30580022FFF7B5F82078401EA0
:102AB000C117890F0818811082082046920028301B
:102AC00049008058795A0122FFF7A5F86088A1884B
:102AD000084215D0207801228007800F4100800035
:102AE000695A3058FFF797F8207881088208124811
:102AF0009200283049008058795A0022FFF78BF85D
:102B00002078401CC0B22070A1884900A180102804
:102B100003D1002020700120A080F8BDE9880022A8
:102B2000F068FFF778F80448F9882830C068012277
:102B3000FFF771F8CAE700003C010020102804D814
:102B40000249C140C843024948807047FFFF000066
:102B50003C010020704700008307FF22DB0E9A40F3
:102B60008907090E994000280BDA0007000F083882
:102B7000830808489B001818C36993430B43C3613B
:102B80007047830804489B001818036893430B435D
:102B90000360704700ED00E000E400E070B50A4C0F
:102BA0002278082A0BD200260C23084D5343EE54FA
:102BB0005B19588098809960521C227070BD04A0E7
:102BC00000F0E6FB70BD00007C010020F002002058
:102BD0006572726F3A7461736B206E756D626572A7
:102BE0002045786365656420746865206D61786947
:102BF0006D756D0A0000000008B5114802680121DA
:102C000049040A4302600068084000900E480D49DC
:102C100001606321C1601721416000210161816071
:102C200041618161FFF7D2FB0748FFF7EBFB01220F
:102C300002211520FFF750F81520FFF743F808BDD3
:102C400040100240004401405003002030B50020F5
:102C50000D490C4C0D7811E00C2141430B4609192C
:102C60004A88002A08D0521E92B24A80002A03D114
:102C70008A884A800121E154401CC0B2A842EBD3AB
:102C800030BD0000F00200207C010020F8B50024D7
:102C9000094D0026094F0BE020460C214843295CD2
:102CA000002903D02E54401980688047641CE4B288
:102CB00038788442F0D3F8BDF00200207C01002077
:102CC0007047000010B507490888401C80B2088092
:102CD0004B21C900884204D9002204210248FEF792
:102CE0009AFF10BD7E010020000400500149002021
:102CF000088070477E01002010B586B00C494A6BF1
:102D0000022002434A63496B014000910121029174
:102D10000390049004200190064C01A92046FEF780
:102D2000E9FE012204212046FEF775FF06B010BD22
:102D30000010024000040050034840680004400FA7
:102D400002498000085870470010024030410008D6
:102D50007CB541000D4E090E01D0706006E00C48B4
:102D60008521C9050069FDF769FA70603068FDF7D3
:102D700099FB04460D467068FDF794FB02460B462E
:102D800004A00195009400F003FB7CBD80020020AC
:102D9000D8000020424F4D2049532025660A544F49
:102DA000502049532025660A000000007CB54100F0
:102DB0000B4E090E01D0306002E00A480069306015
:102DC0003068FDF76FFB04460D467068FDF76AFB3F
:102DD00002460B4604A00195009400F0D9FA7CBD90
:102DE00080020020D8000020424F4D20495320256A
:102DF000660A544F502049532025660A00000000FF
:102E0000704710B5FEF714FF10BD00000748416879
:102E1000074842680123120C12045B031A43114352
:102E200041600449C003886070470000000FFF1F25
:102E30000010024000ED00E010B50248FFF7F3FA81
:102E400010BD00004002002010B50248FFF7EBFA69
:102E500010BD00005003002070B50268184C194ED8
:102E6000A04201D0B04204D170251346AB434A685A
:102E70001A43154B154DA04208D0B04206D0144E4F
:102E8000B04203D0984201D0A84204D103263602B2
:102E9000B243CE6832438026B2434E693243026069
:102EA0008A68C2620A688262A04203D0984201D056
:102EB000A84201D1096901630121416170BD00008F
:102EC000002C014000040040004401400048014043
:102ED0000020004070B5174CE088401CE08060780E
:102EE000012826D125461C35287801281FD168786D
:102EF00003281CD105212846FEF7EAF9A9790A0220
:102F000069791143884212D1287921461031FEF7A0
:102F1000CFFBE078A0702069FEF7ECFBE070A178B1
:102F2000814201D0FFF7E2FEE078FFF707FE0020C4
:102F3000607070BDD8000020F0B587B0142102A8E1
:102F4000FDF705F9234801680125AD032943016018
:102F50000068284001901F484038416B01263143EA
:102F60004163406B304001900220039000240494A0
:102F70000590082006908002029005273F0702A9CD
:102F80003846FEF7B7FD0696029502A93846FEF7C9
:102F9000B1FD124810490160E1214902416084609D
:102FA000C460046184610C214161FFF791FB01223F
:102FB00011461B20FEF790FE1B20FEF783FE0848FB
:102FC000012201461439097841180448FFF7B8FB7B
:102FD00007B0F0BD4010024000380140F40100206D
:102FE000EC0000207CB500226B461A7006225A7055
:102FF000020A9A70D870080A187159710621684639
:10300000FEF766F96B469871000AD87100246D4688
:103010002919FF2301220448FFF7D4FB641CE4B202
:10302000082CF5D37CBD0000F401002010B5FFF79B
:1030300083FF03210846FFF7D5FF01210420FFF796
:10304000D1FF14210520FFF7CDFF01210920FFF753
:10305000C9FF012109030120FFF7C4FF7D20C00043
:10306000FEF7BAFB07489F214268C9058A4202D091
:1030700002688A4204D10449CA68426089680160D2
:1030800010BD000080020020D800002070B500684C
:103090001249884220D1124B0024D8881D4614358D
:1030A0000F280BD9002019461C312A5C0A54401CF9
:1030B000C0B20828F9D3012058701C70DC80187841
:1030C000082803D219792954401C18700449012298
:1030D000091D0448FFF734FB70BD000000380140B3
:1030E000D8000020F401002010B5018C490612D54B
:1030F00001684A6901231B03446A9A4322434A61D7
:10310000416A994207D101684A6903235B03806AD7
:103110009A4302434A6110BD10B5406A00214187BD
:103120004186FFF74CFA10BD0168CA68FF232133BE
:103130009A43CA60016840304A69520852004A61A5
:1031400020218171704710B50168CA6840239A43F5
:10315000CA60202245210A54FFF7A1FB002010BDC0
:1031600070B5014640310A468979222901D00220F2
:1031700070BD012381681B03994202D101690029B6
:103180000DD001684B68416B4C1C44630B70418F40
:10319000491E0904090C41870BD0002070BD416B0A
:1031A00003685B68DB05DB0D0B80416B891C4163A9
:1031B000EDE70168CC6820239C43CC600168CC68B3
:1031C000DD00AC43CC6001684C69640864004C616C
:1031D0009371FFF7E1FA002070BD000070B504465E
:1031E00020680169012252039143E26811430161A1
:1031F000A16820690143606901432068C268294BC6
:103200001A400A43C260E169206842690123DB0277
:103210009A430A43426120684169032212029143A2
:10322000A26911434161E06998421DD1FEF726FE73
:103230006168192249005043FCF75AFF0546642192
:10324000FCF756FF060164214843281AC0003230BB
:10325000FCF74EFFF8210140490040077118400F6C
:1032600008182168886070BDFEF708FE61681922A1
:1032700089005043FCF73CFF05466421FCF738FF0A
:10328000060164214843281A00013230FCF730FF60
:10329000F021014000077118000F081821688860AC
:1032A00070BD0000F3E9FFFF4521095C212901D031
:1032B00002207047012281681203914202D1016904
:1032C00000290DD0C16A026809785160C16A491CA1
:1032D000C162418E491E0904090C41860AD013E0DF
:1032E000C16A02680988C905C90D5160C16A891C93
:1032F000C162EEE70168CA6880239A43CA60006829
:10330000C16840221143C16000207047FFB581B001
:1033100005460E4617460A9C1DE0601C1BD0002C7B
:1033200005D0FEF77FFC0499401AA04213D9286803
:10333000C168FF22A1329143C160286840354169CC
:1033400049084900416120206871A8710020287156
:10335000032005B0F0BD286801683046884304D0DA
:103360000020B842D9D00020F3E70120F9E700009F
:1033700010B50248FFF724F910BD0000F401002049
:1033800010B50248FFF71CF910BD0000A80100208D
:103390000FB410B503A9044B044A029800F000F9D9
:1033A00010BC08BC04B01847893F00088C010020FD
:1033B0002021020C01D010211046020A01D0104633
:1033C0000839020901D01046091F820801D01046B1
:1033D000891E420801D0881E7047081A704730B411
:1033E0007446641E2578641CAB4200D21D46635DA2
:1033F0005B00E31830BC184700487047900100207C
:1034000001480068704700009001002002E008C8F1
:10341000121F08C1002AFAD170477047002001E04E
:1034200001C1121F002AFBD170470000014908604A
:103430007047000090010020F0B51FB484B00798D9
:103440000699020D014314D04A484B4910184843CD
:1034500005140F9801280E981CD0281A401C00242F
:10346000464E4749009401910290002814DA4742E1
:1034700027E00F98012443A3012808D000210498D5
:103480000F9A84600360C260416009B0F0BD0E987D
:10349000C143F4E74042E2E7074612E0F80707D0ED
:1034A0002246334601990098FDF7CEF9019100902C
:1034B0002246334610461946FDF7C6F904460E4625
:1034C0007F10002FEAD10298019B0028009A0799EB
:1034D000069802DAFDF7B8F901E0FDF71DFA044697
:1034E0000E460022284BFDF7AFFA03D80020C04358
:1034F000014607E00022254B20463146FCF7E4FE5A
:10350000FDF782FA102409E0002C0ADB0A220023CE
:10351000FDF70CF8059B30321A55641E02460A432B
:10352000F2D11122641C059B121B1C190F9B012B4D
:1035300003D0012308430ED10AE0084304D0112030
:103540000E9000200F9084E70E98151A6D1E0BE068
:103550000E98824202DD00236D1C03E0824201DAF4
:1035600000236D1E002BEED004980F998260C1607D
:1035700030C08AE701FCFFFF104D0000000024402E
:103580000000F03F300000000000F0430000E03F8A
:1035900030380A2801D2012070470020704700000F
:1035A000FFB597B00646002518E2252877D10024FC
:1035B0002746FD49049400E00443761C327801203C
:1035C000203A90400842F7D130782A280ED00222C3
:1035D000307801463039092916D804990A2359430D
:1035E000303940181443761C0490F1E7189802C84B
:1035F00004911890002904DA012040030443484252
:10360000049002200443761C30782E2814D1042024
:1036100004437078761C2A2809D11898761C80C833
:10362000189009E00A214F43303FC719761C3078C3
:10363000014630390929F5D930786C2810D006DCDC
:103640004C281AD068280ED06A2817D104E07428B4
:1036500013D07A2812D110E00120400504430CE079
:103660000121090501E0032109050C43717881421C
:1036700003D1012000052418761C761C30781190A7
:1036800066280BD013DC58287DD009DC00287BD0BD
:103690004528F6D04628F4D047281AD1A5E118E0ED
:1036A000632835D0642870D0652812D19DE1702838
:1036B0006CD008DC6728F1D069287BD06E280DD04B
:1036C0006F2806D1BAE073282ED0752871D07828DB
:1036D00059D01A9A199990476D1C7EE16002400FEB
:1036E000022809D003280DD00428189801680DD0AD
:1036F0000D60001D189070E11898EA1701680D60C0
:103700004A60F6E7189801680D80F2E70D70F0E75F
:1037100018986A4601781172001D189000205072A6
:1037200002A80090012005E0189802C81890002017
:103730000091C04361070DD5002101E00199491CAA
:103740000191B94212DA8142F8DB009A515C0029FA
:10375000F4D10BE0002101E00199491C0191814263
:10376000FADB019A0099895C0029F5D10199049846
:103770001A9B471A21463846199A00F097FA019980
:10378000401945180BE04FE02CE113E04EE00098A3
:1037900000990078491C00911A9A1999904701984C
:1037A000401E0190401CF2D1214638461A9B199ABE
:1037B00010E137E00A200021009001916002410FE2
:1037C000022907D0189A01CA1892C21794460329F1
:1037D00008D00AE01898C01DC108C90005C9189191
:1037E000944607E000B2C2179446042902D140B2C1
:1037F000C1178C4600226146944506DA0A4600212C
:10380000404291418C462D2102E0210504D52B2117
:103810006A461173012103E0E10701D02021F7E797
:10382000029155E00A200AE0102008E010200090E4
:103830000021042004430191082703E0082000210F
:10384000019100906002410F022907D0189A01CA25
:10385000189200229446032908D008E01898C01D49
:10386000C108C90005C91891944603E080B2042933
:1038700000D1C0B200210291210729D511997029E8
:1038800006D0009A1021019B4A401A4305D00EE051
:1038900040216A461173012108E06146014306D0C8
:1038A00030216A4611731199517302210291009AD5
:1038B0000821019B4A401A430AD16146014301D1C4
:1038C000610705D530216A46117301217F1E0291DF
:1038D0001199582904D035A10E910DA90D910DE033
:1038E00037A1F9E76146019B009AFCF71FFE0E9B8A
:1038F0008C469B5C0D9A521E0D92137061460143DB
:10390000F0D10D9805A9081A20300190600703D561
:1039100001200004844300E001270198874201DD73
:10392000381A00E000200199009041180298091807
:103930000498401A0490E00306D421461A9B199A71
:10394000049800F0B3F94519002706E003A81A9A75
:10395000C05D199990476D1C7F1C02988742F5DB6A
:10396000E0030CD521461A9B199A049800F09EF9A1
:10397000451904E01A9A3020199990476D1C009956
:10398000481E00900029F5DC08E00D980D9900789C
:10399000491C0D911A9A199990476D1C0199481E5E
:1039A00001900029F1DC63E1092801003031323354
:1039B000343536373839616263646566000000006B
:1039C0003031323334353637383941424344454655
:1039D0000000000000F05AF94519761C30780028E4
:1039E00000D0E2E528461BB0F0BD600700D40627F2
:1039F0001898C01DC108C90048680A680831C30F7B
:103A0000DB071891190001D09CA108E0210501D520
:103A10009BA104E0E10701D09AA100E09AA1430034
:103A200011985B08109165280CD006DC452809D058
:103A300046281DD0472841D141E0662818D0672884
:103A40003CD13CE00021112F01DB112000E0781C6B
:103A50000191009008A911A8FFF7EEFC13990591B8
:103A60000021119A15927F1C12980197009150E045
:103A70000120C00703900120019008A9009711A818
:103A8000FFF7DAFC139A149905920022119B009219
:103A900012981593059A0192002901D0104602E070
:103AA000791C40180190381A01D5019804E0404271
:103AB000401E0090781C0190C01B029043E0012F33
:103AC00000DA01270021112F01DD112000E0384626
:103AD0000191009008A911A8FFF7AEFC1399059178
:103AE000119A0021129815920091019721070CD488
:103AF0000599B94201DB019900E00191012904DD3A
:103B0000159A491E515C302906D0B84201DA011DD0
:103B100005DA0121029115E00199491EEDE700281F
:103B200005DC0099411800910199091A03E0019AF6
:103B3000411C914200DD01910099401A401C029005
:103B40000120C0070390200706D402990198814202
:103B500002DB0020C043029000206946C87707AF0F
:103B6000012103980337C907884224D0022011900D
:103B70002B201290039800280CDA404203902D204D
:103B8000129007E00A210398FCF7B2FA30317F1E49
:103B9000039039701199481E11900029F2DC0398A6
:103BA0000028EFD1791E1298087030782021084043
:103BB0004530BF1E387006A8C01BC01D039010986A
:103BC0000078002800D00120019941180298C01700
:103BD0000918039809180498401A401E0490E0033D
:103BE00006D421461A9B199A049800F05FF84519EB
:103BF00010980078002803D01A9A199990476D1CE4
:103C0000E00324D521461A9B199A049800F04EF837
:103C100045191CE00098002807DB009905988842A8
:103C200003DD1598405C199901E0199930201A9A22
:103C3000904700986D1C401C00900298401E029016
:103C4000002804D11A9A2E20199990476D1C0199C9
:103C5000481E01900029DDDC05E038781A9A7F1CA7
:103C6000199990476D1C0399481E03900029F4DCB4
:103C700021461A9B199A0498ACE600002D0000001A
:103C80002B0000002000000000000000F8B50446F2
:103C900000251E461746880404D405E03946202036
:103CA000B0476D1C641EF9D52846F8BDFFB5044623
:103CB000002581B01E46C80301D5302700E020272B
:103CC000880404D505E038460399B0476D1C641E8E
:103CD000F9D5284605B0F0BD30B583B00446FFF7EE
:103CE0008FFB054600200090024601902146684661
:103CF000FCF79BFC2846FFF799FB0199009803B05D
:103D000030BD000070B505460C4600200D4A5178C4
:103D1000052901D1002151700A4B517821335D549E
:103D2000491C51700022995C081880B2521CD2B212
:103D3000052AF8D3FCF790FB0349FCF787FA2060CB
:103D400070BD0000FC0000200000A04089000818A1
:103D500002617047F8B50446E168207A8847217906
:103D6000002902D02288521C2280E279002582425A
:103D700008D06279521CD2B26271032A03D3E07177
:103D8000657100E06571022701260B00FFF727FB34
:103D90000604152E5F8A768AE079A179884209D1D6
:103DA000E5702169002901D0204688472580A6704A
:103DB0002671F8BD0820E070F8BDE079A17988424D
:103DC00008D0E6706169002901D020468847258027
:103DD0002771F8BD20888C28FBD90525E570616A1C
:103DE000002901D0204688472571F8BDE079A179E6
:103DF0000326884212D1E5702169002901D02046AE
:103E00008847A0780F2801D0401CA070A169002924
:103E100001D02046884725802671F8BD20883C289F
:103E2000FBD9A078012802D0022807D00DE0E67067
:103E3000E169002909D02046884706E00420E070A7
:103E4000216A002901D0204688472571F8BDE07914
:103E5000A17988420DD0E6706169002901D0204621
:103E6000884720883C2802D225802771F8BD25711B
:103E7000F8BD20883C28FBD92671F8BDE079A179EE
:103E8000884207D10620E070A16A0029F5D02046BB
:103E90008847F8BDE6706169002901D0204688474F
:103EA0002571F8BD2571F8BDF8B504460D461746D5
:103EB0001E4630212046FCF74AF90820E070E560F4
:103EC0003046A847E071A7712672F8BD074B196804
:103ED0000A4605E0814202D10020C0437047C96A0A
:103EE0000029F7D1C26218600020704778010020D5
:103EF0000020074955228300CA50401CC0B2102838
:103F0000F9D3044800684068486003480860704777
:103F100080020020740100200000484310B5FDF726
:103F2000D5FDFDF7A7F8FDF77DF8FDF7D1F8FDF712
:103F300039FDFDF7F1F810BD10B50A4C2068406856
:103F4000FCF7B0FA02460B4607A0FFF721FA2068FB
:103F50000068FCF7A7FA02460B4607A0FFF718FA1D
:103F600010BD000074010020424C4F434B5F424F94
:103F70004D2D3E2520660A00424C4F434B5F544F67
:103F8000502D3E2520660A0013B5044B01226946D8
:103F90000348FEF717FC00981CBD0000FFFF00005F
:103FA000A8010020FDF74CFEFDF7E4F87D24E400B5
:103FB0002046FDF711FCFEF79FFEFDF7CBFAFFF759
:103FC00097FFFEF719FEFEF7EBFCFEF76BFCFDF723
:103FD0004BF9FFF72BF8104D08212846FDF714FE8A
:103FE0000028F9D00DA0FFF7D3F91348016813A0FA
:103FF000FFF7CEF916493220FEF7D0FD15490A2009
:10400000FEF7CCFD14492046FEF7C8FDFDF79AF9EE
:10401000FEF73CFEFAE70000000400503E3E205749
:10402000656C636F6D6520746F20424C4F434B2D60
:1040300032360D0A00000000C0000020537973746E
:10404000656D436F7265436C6F636B3A25750A004B
:10405000B5120008D52E0008C52C0008F3B583B0B2
:10406000224A9178052901D1002191701F4B917846
:1040700026335854491C91700622194601A8FCF7B2
:104080004DF800240025012001AE315C325D9142E3
:1040900000D90446725D914200D20546401CC0B270
:1040A0000528F2D300214F1CF8B207E0725C335CA4
:1040B0009A4201D273543254401CC0B20528F5D341
:1040C000F9B20429EFD3684604998079087007494A
:1040D00026314A5D80184008485504980A5D0078EA
:1040E00080184008085505B0F0BD0000FC00002015
:1040F00000000000000000000000000000000000C0
:1041000000000000000000000000000000000000AF
:104110000100000002000000030000000400000095
:104120000600000007000000080000000900000071
:1041300000093D0000127A000024F400408651017D
:1041400000366E0100093D0000093D0000093D00F8
:10415000000000000000000000000000000000005F
:104160000100000002000000030000000400000045
:1041700000093D0000127A000024F400408651013D
:1041800000366E011C0FFF1F300FFF1F440FFF1F73
:10419000580FFF1F6C0FFF1F1C0FFF1F1C0FFF1F6F
:1041A0001C0FFF1F00404040404040404040414104
:1041B00041414140404040404040404040404040FC
:1041C0004040404040050202020202020202020296
:1041D0000202020202202020202020202020200293
:1041E0000202020202029090909090901010101023
:1041F00010101010101010101010101010101010BF
:104200000202020202028888888888880808080852
:10421000080808080808080808080808080808081E
:104220000202020240000000A54100084C420008C2
:1042300000000020940100009C0F0008904200083C
:1042400094010020140600001C34000801C1031F63
:10425000127A339C42022041051C68CB743E180937
:10426000CDCCCC3DCDCC4C3E0819043908423D1A8A
:1042700001021202122012401A800812014210128A
:10428000143A500421091404127882083A0444E1D3
:04000005080000C12E
:00000001FF
